:020000040800F2
:10000000780F0020ED01000845520008F545000872
:10001000954F0008E709000861670008000000002C
:100020000000000000000000000000000553000870
:10003000610D0008000000007D5200080753000811
:10004000070200080702000807020008070200086C
:10005000070200080702000807020008070200085C
:10006000070200080702000807020008E909000863
:10007000070200080702000807020008F509000847
:10008000010A00080702000807020008070200082A
:10009000070200080702000807020008070200081C
:1000A000070200080702000807020008070200080C
:1000B000F9540008070200080702000807020008B8
:1000C00007020008070200080702000807020008EC
:1000D0000702000809670008156700082167000883
:1000E00007020008070200080702000807020008CC
:1000F00007020008070200080702000807020008BC
:1001000007020008070200080702000807020008AB
:10011000070200080702000807020008070200089B
:10012000070200080702000807020008070200088B
:10013000070200080702000807020008070200087B
:10014000070200080702000807020008070200086B
:10015000070200080702000807020008070200085B
:10016000070200080702000807020008070200084B
:10017000070200080702000807020008070200083B
:10018000070200080702000807020008070200082B
:10019000070200080000000007020008070200082C
:1001A000070200080702000807020008070200080B
:1001B00007020008070200080702000807020008FB
:1001C00007020008070200080702000807020008EB
:1001D0000702000807020008DFF80CD000F074FBEB
:1001E00000480047A9700008780F002006488047A3
:1001F00006480047FEE7FEE7FEE7FEE7FEE7FEE70C
:10020000FEE7FEE7FEE7FEE775530008D9010008A8
:100210002DE9F05F0546002092469B46884606463B
:10022000814640241BE0284641464746224600F0CE
:1002300064FA53465A46C01A914110D311461846E3
:10024000224600F04BFA2D1A67EB01084F46224672
:100250000120002100F042FA17EB00094E41201E58
:10026000A4F10104DFDC484631462A464346BDE896
:10027000F09FD2B201E000F8012B491EFBD270477B
:100280000022F6E710B513460A4604461946FFF762
:10029000F0FF204610BD2DE9FE4F804681EA0300A5
:1002A000C00F0C46009021F0004123F00045B8EB50
:1002B0000200A94105D24046214690461C460B4605
:1002C000024623F00040104347D0270DC7F30A0031
:1002D000C3F30A510290401A019040286BDAC3F32D
:1002E000130040F4801B0098924620B10023D2EB0B
:1002F000030A63EB0B0B01985946C0F140025046CC
:1003000000F0ECF906460D4650465946019A00F0B9
:1003100004FA10EB08006141002487EA115284EAD4
:10032000E7731A4340D0009A62B3019A012A4FEA58
:10033000075215DC001B61EB02014FF0004202EA9C
:100340000752CDE90042001C41F5801132462B4690
:1003500000F03BFA03B0BDE8F08F40462146F9E7D4
:10036000001B61EB0201001C41F5801300185B418A
:100370002018A2F5001747EB030140EAD570B61923
:100380006D4111E06D084FEA360645EAC0754FEA47
:100390000752001B61EB0201001C41F58011490866
:1003A0004FEA30000019514132462B4603B0BDE8F8
:1003B000F04F00F0FBB90098012240000023D0EB81
:1003C000020263EBE073009821464FEAE074B8EB59
:1003D000000061EB0401E9E783F000435BE781F093
:1003E000004158E72DE9FE4F81EA030404F0004480
:1003F00021F0004100944FF0000B23F0004350EA3D
:1004000001045ED052EA03045BD0C3F30A54C1F383
:100410000A552C44A4F2F3340194A0FB0254C1F316
:10042000130141F48011C3F3130343F4801301FB60
:10043000024400FB034E840A970A44EA815447EAC7
:100440008357A4FB076802958D0A05FB07854FEAD1
:10045000932C04FB0C542705029D4FEA065847EAEB
:100460001637B5EB08056EEB070C870E920E47EAC0
:10047000811742EA8312A7FB0201B6EB0B0164EB82
:1004800000042B0D43EA0C335E1844EB1C50DA4693
:100490005146E7FB0201C5F313044FEA0B3343EA6D
:1004A00014534FEA0432019C43EA0603A4F10C04FE
:1004B0000294009CCDE900B400F087F903B0BDE8D8
:1004C000F08F00200146F9E72DE9F04D81EA0304A1
:1004D00004F0004B21F0004514464FF0000A23F0D1
:1004E000004150EA050220D054EA01021DD0C5F3B4
:1004F0000A570246C5F31303C1F31300C1F30A56AA
:1005000040F4801543F48013A7EB0608101BD64671
:1005100008F2FD3873EB050002D308F1010801E091
:1005200092185B41B8F1000F03DA00200146BDE8E4
:10053000F08D00204FF48011064684460EE0171B14
:1005400073EB050705D3121B63EB050306434CEA67
:10055000010C49084FEA300092185B4150EA01074C
:10056000EDD152EA030012D082EA040083EA0501C9
:10057000084305D0101BAB4106D20122002306E040
:1005800000224FF0004302E06FF0010253101AEB1B
:1005900006004CEB085110EB0A0041EB0B01BDE8E3
:1005A000F04D00F003B90EB5C10F80EAE0700844C9
:1005B000CA07002140F233438DE80E000A460B467D
:1005C00000F003F903B000BD0EB540F233410291D3
:1005D0000021CDE900110A460B4600F0F6F803B001
:1005E00000BD70B5C1F30A5201F000450024C1F30B
:1005F000130140F2FF3341F480119A4201DA0020E6
:1006000070BD40F233439A42A2F2334203DC5242BD
:1006100000F073F800E090402C43F1D0404270BDF0
:10062000C1F30A5210B5C1F3130140F2FF3341F494
:1006300080119A4201DA002010BD40F233439A4201
:10064000A2F2334203DC524200F057F810BD904052
:1006500010BD00F0004230F000400AD0C10D01F59D
:100660006071C0F3160042EA0151C208400711430D
:10067000704700200146704701F0004330B421F07C
:10068000004150EA010206D00A0DA2F56072C1F3E2
:100690001301002A02DC30BC00207047440F44EAFA
:1006A000C104C100E01830BC00EBC25000F047B8F4
:1006B00030B50B46014600202022012409E021FA32
:1006C00002F59D4205D303FA02F5491B04FA02F52F
:1006D0002844151EA2F10102F1DC30BD202A04DB02
:1006E000203A00FA02F1002070479140C2F1200345
:1006F00020FA03F3194390407047202A04DB203A84
:1007000021FA02F00021704721FA02F3D040C2F131
:1007100020029140084319467047202A06DBCB1778
:10072000203A41FA02F043EAE07306E041FA02F3AC
:10073000D040C2F120029140084319467047002979
:10074000A8BF7047401C490008BF20F00100704757
:1007500010B4B0FA80FC00FA0CF050EA010404BFB7
:1007600010BC704749B1CCF1200421FA04F411FA0D
:100770000CF118BF012121430843A3EB0C01CB1D51
:100780004FEA00614FEA102042BF002010BC7047C2
:1007900000EBC35010440029A4BF10BC7047401C9C
:1007A000490008BF20F0010010BC704710B5141EAE
:1007B00073F1000408DA401C41F1000192185B411A
:1007C0001A4301D120F0010010BD2DE9F04D9246F1
:1007D0009B4611B1B1FA81F202E0B0FA80F2203208
:1007E0009046FFF77BFF04460F4640EA0A0041EAC5
:1007F0000B0153465A46084313D0114653EA0100F1
:1008000019D0C8F140025046FFF777FF05460E4663
:10081000504659464246FFF761FF084305D0012084
:1008200004E020463946BDE8F08D0020054346EA45
:10083000E0762C4337430A986305E40AA0EB0800EE
:100840000022FD0A44EA47540A3002D5002001463E
:10085000E9E7010510196941DDE908450019694119
:10086000BDE8F04DA2E7C1F30A52C1F3130140F213
:10087000FF3341F480119A4202DA002001467047AA
:1008800040F233439A42A2F2334202DC5242FFF773
:1008900034BFFFF723BF000030B5041E71F1000420
:1008A00004DB4FF00044404264EB0101141E73F17D
:1008B000000405DB1C464FF00043524263EB040387
:1008C000994208BF904230BD064C074D06E0E068F3
:1008D00040F0010394E8070098471034AC42F6D387
:1008E000FFF77EFC507200087072000870B5044675
:1008F0000068816811F0010F2DD18168174A1142FB
:100900001AD18168D5432940491C816001F092FBCE
:1009100006461BE0816811F0010F03D18168294070
:10092000491C816001F086FB801B02280ED92068DB
:100930000068C043C00709D0E06D40F01000E065DA
:10094000206E40F001002066012070BD2068016823
:10095000C943C907DED1002070BD00003F00008000
:1009600010B501784FF6FF72407802EA0121084481
:1009700080B2FFF729FE9FED051B53EC112BFFF70B
:10098000A3FDFFF72EFE80B210BD000033333333DA
:100990003333F33F08B54FF6FF710246009102234F
:1009A0004721024801F0FCFB08BD000024010020A3
:1009B00001B582B04FF6FF700090012302AA4621D4
:1009C000014801F07FFC0EBD2401002008B5002085
:1009D00000902020FFF7ECFF6846FFF7DBFF68463A
:1009E000FFF7BEFF08BDFEE7014801F0EAB80000CE
:1009F00054020020014801F0E4B800006404002023
:100A0000014801F0DEB80000C40400200D4902686E
:100A10008A4201D20C4901E00B492031D2B21423A1
:100A2000083AB2FBF3F2436C02F01F0223F0030317
:100A30001944816404498031C164012191400165F8
:100A40007047000008040240000802400179074A8C
:100A500002EB81024265054A4432491E826501F07B
:100A60001F0201219140C16570470000FC0802404F
:100A700030B5D0E913456560446D14B1D0E9164531
:100A8000656090F8444004F01F050124AC40056CFB
:100A90006C60046863608368102B036803D09960FE
:100AA0000068C26030BD9A600068C16030BD00B5AA
:100AB00085B0102000900020019069464FF09040D2
:100AC00001F082F905B000BD00B585B0102000909E
:100AD000012001900220039069464FF0904001F000
:100AE00073F905B000BD000010B500F0DFF9034850
:100AF00080ED010ABDE8104000F034B9400000204C
:100B00002DE9F0411E2004F0BBFB6C480024017865
:100B100001293AD16A490A78012A36D104700C7049
:100B2000684969A006F00EFB664E4FF0904530789C
:100B30000A2806D00B2811D00C282CD00D281ED145
:100B400034E04FF480773946284601F066FA39469A
:100B5000284601F05DFA014661A00BE04FF40077F2
:100B60003946284601F059FA3946284601F050FA2C
:100B7000014660A005F0F6FD63A005F0F3FD00203E
:100B80003454401CC0B21428FAD3604800780128BD
:100B900018D070B330E02021284601F03EFA202121
:100BA000284601F035FA014659A0E3E75D4D0421DE
:100BB000284601F032FA0421284601F029FA0146BC
:100BC00059A0D7E75D480078012806D0022807D051
:100BD000032808D004280FD108E004F0D9FA0BE06C
:100BE00004F0DAF908E004F029FA05E004F07AFAF2
:100BF00002E0FFE704F028FB514F3878012833D199
:100C000000F054F9BCEEC00A0A264E4D10EE100A50
:100C1000C0B2B0FBF6F0B0FBF6F106FB1100287095
:100C200000F044F9BCEEC00A10EE100AC0B2B0FBEE
:100C3000F6F106FB11006870297843A006F0A0FACF
:100C4000697841A006F09CFAA9783FA006F098FACE
:100C5000E9783DA006F094FA3C70FFF745FF0121CA
:100C600003F0A4FCFFF740FF3848017801290DD1BB
:100C70000470FFF7ABFE014635A006F063FAFFF7FC
:100C8000A5FE002103F026FCFFF7A0FE3248017804
:100C9000012905D1047003F0AFFC022103F03EFCF2
:100CA0002E480178012907D1047004F06BFBBDE8E0
:100CB000F041002103F056BCBDE8F08107000020A0
:100CC0002D000020240500204920676F74207468DF
:100CD00065206D6573736167652025630000000002
:100CE0007368756962656E672E6274302E76616C0A
:100CF0003D2564006C696768742E6274302E7661DD
:100D00006C3D256400000000FFFFFF003E00002056
:100D10007368756962656E672E6274322E76616CD7
:100D20003D256400000400487368756962656E675C
:100D30002E6274312E76616C3D2564003F000020E8
:100D4000050000204000002025640000060000206F
:100D500025640D0A00000000040000200A000020A5
:100D600070470000F2EE040A10B520EE200A10EEE3
:100D7000100AFFF76EFC9FED051B53EC112BFFF7DC
:100D80008AFABDE81040FFF74BBC000000000000ED
:100D90000000E03FDFED090A10B520EE200A10EE5A
:100DA000100AFFF756FC9FED061B53EC112BFFF7C3
:100DB00072FABDE81040FFF733BC00000000C842E3
:100DC000000000000000E03F02E03021491EFDD29B
:100DD000401EFAD2704770B50024FFF768FE4FF04E
:100DE000904504E0641CE4B20120FFF7EDFF102100
:100DF000284601F00DF910B1642CF3D30FE0642CF8
:100E00000DD2002404E0641CE4B20120FFF7DCFFF3
:100E10001021284601F0FCF818B1F02C04D3012071
:100E200070BDF02CEFD3FAE7002070BD70B500253F
:100E30005FF0010400F072F8012806D0A5436000BD
:100E400010F0FF04F6D1284670BD2543F7E70000F7
:100E500070B5054601244FF0904600BFFFF734FE01
:100E600025424FF000024FF0100130460BD101F047
:100E7000DCF84620FFF7A8FF01221021304601F0E0
:100E8000D4F802200AE001F0D0F80920FFF79CFF17
:100E900001221021304601F0C8F83720FFF794FFF7
:100EA000600010F0FF04D9D170BD000010B500F053
:100EB00052F8FFF790FFCC20FFF7CAFF4420FFF75E
:100EC000C7FF00F048F8FFF786FFCC20FFF7C0FF10
:100ED000BE20FFF7BDFFFFF7A9FF0446FFF7A6FFFF
:100EE000000200B22043FFF75EFB9FED081B53ECAE
:100EF000112BFFF777FA9FED071B53EC112BFFF730
:100F00006BFAFFF7B9FB00EE100A10BD00000000FD
:100F10000000B03F000000000000084010B5FFF7DF
:100F2000D3FD4FF0904400221021204601F07DF8BF
:100F30000F20FFF749FFFFF7BAFD1021204601F00F
:100F400067F8012805D000243220FFF73DFF204636
:100F500010BD0124F8E710B5FFF7B6FD4FF090443F
:100F600000221021204601F060F840F2EE20FFF749
:100F70002BFF01221021204601F057F8BDE8104058
:100F80000F20FFF721BF72B6FEE700002DE9F04FFA
:100F9000044690F858009BB00F464FF0000B012814
:100FA00012D0012084F85800002617961896206861
:100FB0004FF0A048DFF81891DFF818A1464D4045E2
:100FC00006D12846009508E002201BB0BDE8F08F4E
:100FD000484515D15046CDF800A003F00FFD009014
:100FE000206803F00BFD0099084311D0E06D40F03C
:100FF0002000E0654FF0010B84F858605846E4E7A4
:10100000E06D40F02000E06584F858600120DCE7E6
:1010100020684146884201D0A84201D12F4800E013
:101020002F48D7F800C02F4B40F61F72BCF1000FBD
:101030002DD0D0F808C094F838802CF4604C4CEADD
:10104000483CD7F804804CEA080CC0F808C0D4F833
:1010500000C08C4501D0AC4504D18968AB6801F073
:10106000010109E0D9F80810DAF8085001F001018F
:1010700005F001059B68294303F001031943BBD127
:10108000BB68396819438368934319431DE0876837
:1010900027F46047876027688F4201D0AF4204D1B0
:1010A0008968AB6801F0010109E0D9F80810DAF8A5
:1010B000085001F0010105F001059B68294303F088
:1010C0000103194398D181689143816094E700003E
:1010D00000040050000500500001005000030050C3
:1010E00000070050000600502DE9F84F0027044685
:1010F000009790F85800DFF810840D46B946012893
:1011000011D0012684F85860206803F073FC60B1A8
:10111000E06D40F02000E0655FF0010784F8589032
:101120003846BDE8F88F0220FBE7D5E900210C2303
:10113000206803EA91131844036B01F01F014FF07C
:101140001F0C0CFA01FCC2F3846223EA0C038A40F0
:1011500013430363206803F04DFC8246206803F0CC
:1011600045FC5AEA00003CD1AA6829682068B2F11F
:10117000004F37D003F04EFC2068416921F0004158
:10118000416120686969C268C2F3C102520091409E
:101190002A69042A31D000EB82002B68026EDFF846
:1011A0006CC303F0F84302EA0C020B431A4342F00B
:1011B0000041016622682869A96902EB8000026E7D
:1011C00022F080720A430266297F20682A69012979
:1011D00010D0002100EB8200026E22F000720A4360
:1011E00002667DE0002203F015FC2068416941F0B1
:1011F0000041C5E74FF00071ECE7002103F0F0FB80
:10120000400320684FF0000172D003F0E9FB90FA30
:10121000A0F0B0FA80F1286842036ED090FAA0F0F6
:10122000B0FA80F0814204D100221146206803F018
:1012300000FC0121206803F0D3FB400320684FF03D
:1012400001015DD003F0CCFB90FAA0F0B0FA80F180
:101250002868420359D090FAA0F0B0FA80F0814299
:1012600004D100220121206803F0E3FB0221206861
:1012700003F0B6FB400320684FF0020148D003F0B2
:10128000AFFB90FAA0F0B0FA80F12868420344D096
:1012900090FAA0F0B0FA80F0814204D1002202213D
:1012A000206803F0C6FB0321206803F099FB40038C
:1012B00020684FF0030133D003F092FB90FAA0F0C6
:1012C000B0FA80F1286842032FD090FAA0F0B0FA6B
:1012D00080F0814204D100220321206803F0A9FBA1
:1012E0002068816811F0010F22D0A7E000E004E03F
:1012F00003F076FBC0F384618DE7C0F3846091E76F
:1013000003F06EFBC0F38461A2E7C0F38460A6E73C
:1013100003F066FBC0F38461B7E7C0F38460BBE70A
:1013200003F05EFBC0F38461CCE7C0F38460D0E7D8
:10133000EB682968434550F8B03FC1F3120101D171
:101340000B4300E08B430360E868404576D1286892
:1013500041031BD090FAA0F1B1FA81F1491C01F0D0
:101360001F0109294FEA403131D8002911D090FAE4
:10137000A0F1B1FA81F100BF01F1010101F01F01FB
:1013800006FA01F608D1C0F3846109E0C0F3846174
:10139000E4E7C0F38461EFE790FAA0F1B1FA81F1DC
:1013A00001F1010101F01F0146EA816102D1C0F3A0
:1013B000846003E090FAA0F0B0FA80F000F1010040
:1013C00000F01F0000EB400041EA005132E000292C
:1013D0000ED090FAA0F1B1FA81F100BF01F1010144
:1013E00001F01F0106FA01F605D1C0F3846106E0A1
:1013F000C0F38461F2E790FAA0F1B1FA81F101F152
:10140000010101F01F0146EA816102D1C0F384604D
:1014100003E090FAA0F0B0FA80F000F1010000F0D3
:101420001F003B4A00EB400002EB005041EA000184
:1014300041F00071AA68206803F0ECFA35482B6887
:1014400003423FF46BAE22684FF0A04C3248334E5B
:10145000334D624501D0AA4201D1014600E0314638
:101460008968DFF8C08001F0E071434503D0DFF800
:10147000B880434521D15FEA01281ED4624506D0D9
:101480002A4B9A427FF44AAEAA4200D0304641F439
:101490000001826822F0E0720A43826024482549F4
:1014A0000068B0FBF1F0401C00EB4000800000E061
:1014B000401E00900028FBD130E6DFF87C804345D9
:1014C0000FD15FEAC1180CD4AA4202D11B4B9A4239
:1014D000F2D0624502D0AA4200D0304641F080717D
:1014E0000CE0DFF85C804345E6D14B02E4D4AA422D
:1014F000E2D0624500D0304641F48001826822F09B
:10150000E0720A43826009E600007F4000F0FF03BA
:10151000000020FE0000088000030050000700507B
:1015200000010050000021C31000C09000060050D0
:1015300028000020400D0300000052C700050050A5
:10154000000084CB0068006C70470000F8B54FF0D5
:10155000000504002E46009502D0E06D10B107E0B2
:101560000120F8BD204600F00DF9266684F8586089
:1015700020688168C1F3407119B18168754A1140D2
:10158000816020688168C1F3007189B98168724AFD
:10159000114041F080518160704871490068B0FB92
:1015A000F1F04000801C00E0401E00900028FBD1BC
:1015B00020688168C1F3007141B9E16D41F010010B
:1015C000E165216E41F001012166012503F012FA67
:1015D000E16D01F010010143E06D05D040F0100015
:1015E000E06501252846F8BD20F4807040F0020037
:1015F000E0652068816811F0010F27D14FF0A0430A
:10160000584A984201D0904204D19968966801F0F6
:1016100001010AE054498968544E01F00101B6689D
:1016200006F001063143524EB66806F0010631431A
:101630000CD1984201D0904201D14E4800E04E4872
:101640006168826822F47C120A438260E168E06B80
:10165000627F0843A16841EA4231084394F82410AC
:1016600040EA0140012904D1218D444A02EB414165
:101670000843E16A29B101F47871226B014342EA1F
:1016800001002168CA683E4B1A400243CA602068C4
:101690000169626B21F0406111430161206803F030
:1016A000A9F90646206803F0A1F930432ED1207F26
:1016B00094F838102268800340EA4101D06844F26F
:1016C000020398430843D06020690028206801691C
:1016D0000AD041F480310161206850F8C01F2269AE
:1016E0006FF30D01114307E021F48031016120689F
:1016F00050F8C01F6FF30D01016094F840000128FD
:101700000CD02068016921F00101016160690128A4
:101710002068016B21F00F0111D013E0D4E9110111
:101720000843D4E913121143084321680A6940F2BF
:10173000FC739A43104340F001000861E6E7226A17
:10174000521E11430163E06D20F0020040F00100E1
:10175000E06547E7C0FFFF5FC0FFFF7F2800002074
:10176000400D03000001005000040050000500502F
:101770000006005000030050000700500000FEFF6C
:101780000740F0FFF0B59BB00446142115A8FEF702
:1017900077FD54216846FEF773FD4FF40041206841
:1017A00000268A032B4D03272B4CB0F1A04F10D0FD
:1017B0002A4B98424BD168461192009100F05EFF8F
:1017C00008B1FFF7E0FB2868401C2860012825D0FD
:1017D0002CE068461192009100F050FF08B1FFF72D
:1017E000D2FB2868401C2860012807D1E06C40F437
:1017F0000050E064E06C00F400501A90E06C40F09F
:101800000200E064E06C179600F002001A904FF4BA
:101810008040CDE9150715A9114816E0E06C40F4A9
:101820000050E064E06C00F400501A90E06C40F06E
:101830000100E064E06C179600F001001A900120AE
:10184000CDE9150715A94FF0904000F0BDFA1BB087
:10185000F0BD000000000020001002400001005018
:10186000000400482DE9F0470446884600684FF020
:10187000A0454749474BDFF82091A84201D0484591
:1018800001D10A4600E01A46926802F01F06A269DA
:10189000082A14D0AEB1052E13D0092E11D0A842BB
:1018A00002D0484500D01946886800F4604058B11D
:1018B000E06D40F02000E0650120BDE8F0870827DA
:1018C00003E0C068C007F2E7042700F0B3FB8246DC
:1018D00019E000BFB8F1FF3F15D000F0ABFBA0EB63
:1018E0000A01414502D8B8F1000F0CD12068006808
:1018F000384208D1E06D40F00400E065002084F833
:1019000058000320D9E7206800683842E2D0E06D33
:1019100040F40070E065206803F074F880B1607FE7
:1019200070B92068006800070AD5E06D20F4807067
:10193000E065E06DC00403D4E06D40F00100E065B7
:101940002068164A164B484501D12C4604E09042C7
:1019500001D11C4600E0044684420AD04EB1052E57
:1019600007D0092E05D0484506D0904203D11D4628
:1019700002E0C16801E00546E968082F05D0490486
:1019800001D40C210160002097E70821FAE700004C
:1019900000030050000700500001005000050050F7
:1019A000000400502DE9F041044600684FF0A045C6
:1019B000444FA84201D0B84201D1434900E0434915
:1019C000896801F01F0603F015F818B102210846D6
:1019D000BDE8F08194F8580001280CD0012084F86B
:1019E00058002046FEF782FF01004FF0000204D0AD
:1019F00084F85820EBE70220EAE7E06D40F6016347
:101A0000984340F48070E0652068314BDFF8C4C033
:101A1000B84201D1AE4604E0984201D1E64600E06A
:101A20008646864500D02EB9D4F85CE02EF4801EA0
:101A3000C4F85CE0D4F85CE05FEACE4E06D5D4F89A
:101A400060E02EF0060EC4F860E000E022664FF081
:101A50001C0EC0F800E084F858202068B84201D17C
:101A60002A4604E0984201D1624600E002468242E2
:101A70000ED06EB1052E0BD0092E09D0E26D42F4C6
:101A80008012E265B84213D0984210D165460FE04B
:101A9000C268920105D5E26D22F4005242F48052F0
:101AA000E26582680C4B1A40121D82608FE7054682
:101AB000E86880018BD5E06D20F4005040F4805040
:101AC000E06584E70001005000030050000700506B
:101AD0000005005000040050C0FFFF7F10B590F8D3
:101AE000253000210122022B03D00421C1630121F2
:101AF00022E003681C6824F00E041C60836C1C68E0
:101B000024F480741C6003681C6824F001041C60C9
:101B100090F84430046C03F01F0302FA03F363608F
:101B2000D0E913345C60436D33B11C6824F48074D5
:101B30001C60D0E916345C6080F82520002280F813
:101B40002420084610BD70B590F8252000240121FE
:101B50002346022A07D00422C26380F8251080F8A9
:101B60002430012429E00268156825F00E0515606F
:101B70000268156825F001051560826C156825F46A
:101B80008075156090F84420056C02F01F0201FA80
:101B900002F26A60D0E913255560426D32B11568D2
:101BA00025F480751560D0E91625556080F825105C
:101BB00080F82430816B01B18847204670BDC06B2E
:101BC0007047F0B4016C0C6801680D6890F844200F
:101BD00002F01F06042202FA06F3234211D06B071B
:101BE0000FD50B689B0603D40B6823F004030B602E
:101BF00090F8441001F01F018A40016C4A60016BAB
:101C00001DE0022303FA06F727424FF0000C4FF0C5
:101C1000010218D0AF0716D50C68A40605D40C68CD
:101C200024F00A040C6080F8252090F8441001F09C
:101C30001F018B40016C4B6080F824C0C16A0029F1
:101C40001AD0F0BC08470823B340234214D02B0716
:101C500012D50B6823F00E030B6090F84410036C50
:101C600001F01F0102FA01F15960C26380F82520DA
:101C700080F824C0416BE2E7F0BC704770B5040007
:101C80000CD02B4A21681420914209D2294A0A44D7
:101C9000B2FBF0F08000606427480AE0012070BDCC
:101CA000234A52420A44B2FBF0F0800060642048AC
:101CB00008382064022084F825000A6847F6F0708E
:101CC0008243D4E902031843D4E904352B43184373
:101CD000A3691843E3691843236A18431043086053
:101CE0002046FEF793FEA0680025B0F5804F00D196
:101CF0006560A16C20790860D4E9130141606068D7
:101D0000401E032808D82046FEF7A0FE606D05603F
:101D1000D4E91601416002E06565A565E565E56306
:101D2000012084F8250084F82450002070BD0000B4
:101D300008040240F8FFFDBF0000024070B50446F1
:101D400090F82400002501280CD0012084F82400FC
:101D500094F825600020012E06D084F82400022586
:101D6000284670BD022070BD022684F82560E0631D
:101D70002068066826F0010606602046FEF778FE19
:101D8000206B00282068016802D041F00E0106E0B7
:101D900021F0040101602068016841F00A0101603E
:101DA000A06C0168C90303D5016841F4807101602A
:101DB000606D18B1016841F48071016020680168AC
:101DC00041F001010160CBE72DE9F04FDFF82092EF
:101DD000002301260324A9F1040B85B00F2709F184
:101DE000040AABF1040EFAE006FA03F52A407CD0AF
:101DF00091F804C00CF0030CBCF1010F02D0BCF14F
:101E0000020F26D1D0F808C0CDF800C04FEA430C2D
:101E100004FA0CF8CDF810C0DDF800C02CEA080C6C
:101E2000CDF800C0D1F80C80DDF810C008FA0CF82D
:101E3000DDF800C048EA0C08C0F80880D0F804C0FB
:101E40002CEA050C0D79C5F300159D4045EA0C05FB
:101E500045600D79ED43AD070ED0C5684FEA4308E4
:101E600004FA08FC25EA0C05D1F808C00CFA08FCB5
:101E70004CEA050CC0F80CC00D7905F00305022DE5
:101E800016D1DD0800EB850CCDF808C0DCF8208009
:101E90005D074FEAD56C07FA0CF528EA05080D69CD
:101EA00005FA0CF5DDF808C045EA0805CCF8205025
:101EB00005684FEA430CCDF808C004FA0CFC25EA8B
:101EC0000C0591F804C00CF00308DDF808C008FA0E
:101ED0000CF848EA0508C0F800804D6815F4403F4A
:101EE0007CD0444DD5F860C000E077E04CF0010CA8
:101EF000C5F860C02D6E23F0030C05F001050095B8
:101F00003D4D65440295AD684FEA837C4FEA1C78ED
:101F100007FA08FC25EA0C05B0F1904F06D0DFF86F
:101F2000DCC0604505D14FF0010C20E04FF0000C03
:101F30001DE0DFF8CCC0604502D14FF0020C16E086
:101F4000DFF8C0C0604502D14FF0030C0FE0DFF8AE
:101F5000B8C0604502D14FF0040C08E0DFF8ACC017
:101F6000604502D14FF0050C01E04FF0060C0CFA71
:101F700008FC4CEA050C029DC5F808C0D9F80050D1
:101F8000CC46D1F8048095435FEAC82800D51543B4
:101F9000CCF80050DAF80050D446D1F804809543CC
:101FA0005FEA882800D51543CCF80050DBF80050D4
:101FB000DC46D1F8048095435FEA883800D51543A4
:101FC000CCF80050DEF80050F446D1F80480954378
:101FD0005FEAC83800D51543CCF800505B1C0A688E
:101FE00032FA03F57FF400AF05B0BDE8F08F0000D2
:101FF00008040140001002400000014000040048B5
:1020000000080048000C0048001000480014004878
:102010000069084000D001207047426921EA0203AC
:102020000A4043EA0241816170470AB18161704709
:102030008162704701488068704700001C000020E2
:1020400090F84120202A24D190F84020012A20D065
:10205000012280F84020242280F841200268136881
:1020600023F0010313600268136823F480531360A4
:10207000026813680B43136001680A6842F00102AA
:102080000A60202180F84110002180F840100846A5
:1020900070470220704790F84120202A22D190F802
:1020A0004020012A1ED0012280F84020242280F8FE
:1020B00041200268136823F001031360026813686B
:1020C00023F4706343EA0121116001680A6842F059
:1020D00001020A60202180F84110002180F84010A0
:1020E000084670470220704770B5040004D094F889
:1020F0004100002510B106E0012070BD84F8405079
:10210000204600F071F9242084F84100206801681D
:1021100021F0010101606068216820F070600861B1
:102120002068816821F400418160E0680128A0688E
:1021300007D040F4044021688860E068022803D09A
:1021400006E040F40040F6E721684FF40060486084
:1021500020684168114A114341602068C16821F438
:102160000041C160D4E904010843A16940EA0120AB
:102170002168C860D4E90701084321680860206825
:10218000016841F0010101606564202084F841008C
:10219000256384F84250002070BD000000800002DA
:1021A0002DE9F84F044690F84100DDF828A01F46BD
:1021B00090468B4620287ED194F8400001287AD0A2
:1021C000012084F84000FFF735FF06460122009009
:1021D0001923D103204602F03BFBE0BB222084F808
:1021E0004100102084F8420000256564C4F8248072
:1021F00067856563618D3148FF274FF080784FF028
:102200000079FF2903D927853A46009039E0618D8E
:10221000218500903AE05946204602F001FB13E088
:1022200002F042FBB8B92068406A616A0870606ACF
:10223000401C6062208D401E80B22085618D491E49
:102240006185618D01B168B1608D324600285146CB
:102250002046E5D100E002E002F074FBD0B101209D
:10226000BDE8F88F5346002280212046009602F0F8
:10227000EFFA0028F3D1608DFF2804D927853A466C
:1022800000954346C7E7608D2085009594F8282087
:102290004B46C0E721682020C86121684A68084B86
:1022A0001A404A6084F8410084F8425084F8405053
:1022B0000020D5E7FFE70220D2E7000000240080DD
:1022C00000E800FE2DE9F84F044690F84100DDF8E3
:1022D00028A01F4690468B4620287ED194F84000C7
:1022E00001287AD0012084F84000FFF7A3FE0646BB
:1022F000012200901923D103204602F0A9FAE0BB85
:10230000212084F84100102084F8420000256564F3
:10231000C4F8248067856563618D3148FF274FF0DD
:1023200080784FF00079FF2903D927853A4600903D
:1023300039E0618D218500903AE05946204602F04F
:102340006FFA13E002F024FBB8B9606A21680078E4
:102350008862606A401C6062608D401E6085208DCE
:10236000401E80B22085618D01B168B1608D32461A
:10237000002851462046E5D100E002E002F0E2FAF2
:10238000D0B10120BDE8F88F5346002280212046BD
:10239000009602F05DFA0028F3D1608DFF2804D981
:1023A00027853A4600954346C7E7608D208500950E
:1023B00094F828204B46C0E721682020C861216896
:1023C0004A68084B1A404A6084F8410084F8425039
:1023D00084F840500020D5E7FFE70220D2E7000054
:1023E0000020008000E800FEF0B59BB004461421F8
:1023F00015A8FDF745FF54216846FDF741FF204928
:102400002068884239D14020002500900795684611
:1024100000F034F908B1FEF7B6FD1A4CE06C40F05C
:102420000100E064E06C00F001001A90E06C40F004
:102430000200E064E06C122600F002001A9004270B
:102440004FF40040CDE91665CDE91857159015A950
:10245000B006FFF7B9FC8020CDE91665CDE9185725
:10246000159015A90848FFF7AFFCA06D40F40010C7
:10247000A065A06D00F400101A901BB0F0BD000024
:1024800000540040001002400004004802488168E7
:1024900042681144816070471C00002010B5002480
:1024A000032000F073F80F2000F008F808B10124B1
:1024B00001E000F025F8204610BD000070B50E4E7A
:1024C00005460024706898B14FF47A71B1FBF0F0C2
:1024D0000A490968B1FBF0F000F09EFD40B9102DEB
:1024E00006D200222946501E00F030F8356000E088
:1024F0000124204670BD00001C00002028000020A0
:102500000A4882B0016E41F001010166016E01F0DE
:1025100001010091816D41F080518165806D00F075
:102520008050009002B000F0A1B8000000100240FE
:10253000002809DB00F01F020121914040098000C2
:1025400000F1E020C0F8001170470000F0B40E4B1D
:102550001B680C46C3F30223C3F10705042D00D901
:102560000425191D072901D2002300E0DB1E0126E6
:1025700006FA05F1491E214099409E40761E1640FC
:102580003143F0BC04F010B90CED00E0064900F056
:10259000070208684FF6FF03184040EA0220034A8A
:1025A00010430860704700000CED00E00000FA05E1
:1025B0002B492C4B0A6832214A432B4940B1B0F5D4
:1025C000007F086829D020F4C06040F480602CE0CF
:1025D0000868C0F34120022804D051F8800F20F48D
:1025E000807022E0D1F8800020F48070C1F8800073
:1025F000086820F4C06040F400700860B2FBF3F09B
:10260000401C00E0401E4A69520501D50028F9D15E
:10261000486940050AD503207047C0F341200228CD
:1026200006D051F8800F40F4807008600020704799
:10263000D1F8800040F48070C1F88000086820F470
:10264000C06040F400700860B2FBF3F0401C00E092
:10265000401E4A695205DBD50028F9D1D8E70000B1
:102660002800002040420F000070004002488168AE
:1026700041F4804181607047007000402DE9F843CB
:10268000044600680026BB4D00035ED5A86D0027F8
:10269000C00008D4A86D40F08050A865A86D01273F
:1026A00000F080500090DFF8D092D9F8001041F48B
:1026B0008071C9F80010FFF7BDFC804606E000BF3E
:1026C000FFF7B8FCA0EB080002282BD8D9F80000CF
:1026D000C005F5D5D5F8900010F4407014D0216DE8
:1026E000814211D0D5F89000D5F8901020F44070B8
:1026F00041F48031C5F89010D5F8901021F4803164
:10270000C5F89010C5F89000C00711D0FFF792FCF3
:10271000804641F2883907E0FFF78CFCA0EB080106
:10272000494501D903260BE0D5F890008007F3D581
:10273000D5F89000216D20F440700843C5F8900052
:102740001FB1A86D20F08050A8652078C00707D081
:10275000D5F88800616820F003000843C5F88800B8
:102760002078800707D5D5F88800A16820F00C00F4
:102770000843C5F888002078400707D5D5F88800B9
:10278000E16820F030000843C5F888002078000791
:1027900007D5D5F88800216920F0C0000843C5F8A6
:1027A00088002078C00607D5D5F88800616920F434
:1027B00040700843C5F888002078800607D5D5F812
:1027C0008800A16920F440600843C5F8880020789B
:1027D000400607D5D5F88800E16920F44050084349
:1027E000C5F888002078000607D5D5F88800216A4A
:1027F00020F440400843C5F888002088C00507D56C
:10280000D5F88800616A20F440300843C5F8880094
:102810002068800307D5D5F89C00A16A20F003004A
:102820000843C5F89C002088800507D5D5F88800A6
:10283000E16A20F440200843C5F88800208840055C
:102840000FD5D5F88800216B20F440100843C5F857
:102850008800206BB0F5801F03D1E86840F4801039
:10286000E860208800050FD5D5F88800616B20F45A
:1028700040000843C5F88800606BB0F5800F03D1B5
:10288000E86840F48010E8602088C0040FD5D5F8CF
:102890008800A16B20F040700843C5F88800A06B49
:1028A000B0F1807F03D1E86840F48010E8602088B0
:1028B0004FF0006180040ED5D5F88800E26B20F05F
:1028C00040601043C5F88800E06B884203D1E86897
:1028D00040F48010E860208840040ED5D5F88800C8
:1028E000226C20F040601043C5F88800206C8842BC
:1028F00003D1E86840F48010E860208800040FD518
:10290000D5F88800616C20F040500843C5F8880075
:10291000606CB0F1805F03D1E86840F48030E8601B
:102920002068C0030FD5D5F88800A16C20F0404086
:102930000843C5F88800A06CB0F1804F03D1E86867
:1029400040F48030E860206840030FD5D5F89C0043
:10295000E16C20F440100843C5F89C00E06CB0F531
:10296000001F03D1E86840F48010E8603046BDE8FD
:10297000F883000000100240007000402DE9F0478D
:102980000E4605004FF0000725D0DFF8AC81D8F8DF
:10299000000000F00F00B0420CD2D8F8001021F077
:1029A0000F013143C8F80010D8F8000000F00F0004
:1029B000B04210D12968614CC80741F2883A5AD018
:1029C0006868DFF87C91032808D0022820682DD0A1
:1029D000400500282CDB0120BDE8F087206880013D
:1029E000F9D5E06800F00302E068C0F30310401C72
:1029F000032A19D0534A00BFB2FBF0F0E268C2F3D9
:102A000006225043E268C2F34162521C5200B0FBFE
:102A1000F2F0484517D9A06810F0F00F0CD08807E5
:102A200011D5A86840B10EE0474AE5E78003D0E73A
:102A300000F0B6F8484506D9A06820F0F00040F054
:102A40008000A0608027A068696820F00300084328
:102A5000A060FFF7EFFA814606E000BFFFF7EAFA51
:102A6000A0EB090151453AD8A068696800F00C0054
:102A7000B0EB810FF2D12868810714D5400703D548
:102A8000A06840F4E060A0602878000705D5A06841
:102A900020F4605040F4E060A060A068A96820F0D5
:102AA000F000084304E0802F03D1A06820F0F0007C
:102AB000A060D8F80010404601F00F01B14216D9CD
:102AC000016821F00F0131430160FFF7B3FA0746B7
:102AD00007E000BFFFF7AEFAC11B514501D9032043
:102AE0007AE7D8F8000000F00F00B042F2D1287861
:102AF000400705D5A068E96820F4E0600843A060BD
:102B00002878000706D5A068296920F4605040EABB
:102B1000C100A06000F044F8A1680C4AC1F30311A1
:102B2000515C01F01F01C84009490860094800686C
:102B3000BDE8F047FFF7C2BC002002400010024091
:102B400000B4C4040024F40000127A0038720008B3
:102B5000280000201C0000200548064900688968FC
:102B6000054AC1F30221515C01F01F01C8407047C2
:102B7000280000200010024048720008054806495D
:102B800000688968054AC1F3C221515C01F01F0148
:102B9000C84070472800002000100240487200081A
:102BA000184910B58868C0F381021748012A0BD074
:102BB0008A684310C2F38102022A06D08A68C2F3EF
:102BC0008102032A03D0002010BD184610BDCA6838
:102BD00002F00304CA68C2F30312521C032C02D091
:102BE000B0FBF2F001E0B3FBF2F0CA68C968C2F3CF
:102BF00006225043C1F34161491C4900B0FBF1F08A
:102C000010BD0000001002400024F4002DE9F8433C
:102C100004007AD02078FA4DC00747D0A868E96848
:102C200000F00C0001F003010C2802D0082817D096
:102C300001E0032914D06068B0F5803F17D0B0F5EB
:102C4000A02F286817D020F480302860286820F44E
:102C5000802028606068E0B1FFF7ECF9064614E0D8
:102C60002868800322D560680028D2D01EE028683A
:102C700040F48030EDE740F480202860F7E700BFA3
:102C8000FFF7D8F9801B642870D828688003F7D52F
:102C90000CE0FFF7CFF9064605E000BFFFF7CAF9E1
:102CA000801B6428F0D828688003F7D42078800738
:102CB0004CD5A868E96800F00C0001F003010C286D
:102CC00002D004280DD001E002290AD0E0680028D3
:102CD00028682BD040F480702860FFF7ABF90646D7
:102CE00019E02868400502D5E068002891D068689E
:102CF000217C20F0FE4040EA01606860C148006825
:102D0000FFF7DCFB002800D120E076E1FFF792F925
:102D1000801B0228B8D828684005F7D56868217C50
:102D200020F0FE4040EA016068600FE020F480700F
:102D30002860FFF77FF9064605E000BFFFF77AF944
:102D4000801B0228A0D828684005F7D42078000707
:102D500029D560690028D5F8940013D040F001000F
:102D6000C5F89400FFF766F9064606E090E000BF5C
:102D7000FFF760F9801B022886D8D5F894008007F9
:102D8000F6D510E020F00100C5F89400FFF752F9E5
:102D9000064604E0FFF74EF9801B022878D8D5F8E4
:102DA00094008007F6D42078400761D5A86D0026EE
:102DB000C00008D4A86D40F08050A865A86D012619
:102DC00000F08050009090480168C90511D4016856
:102DD000804641F480710160FFF72CF9074604E05A
:102DE000FFF728F9C01B022852D8D8F80000C00508
:102DF000F6D5A068012815D00528D5F8900016D082
:102E000020F00100C5F89000D5F8900020F00400F3
:102E1000C5F89000A06841F28838B8B1FFF70AF908
:102E200007460EE0D5F8900040F00100F0E740F0D2
:102E30000400C5F89000F5E7FFF7FCF8C11B414519
:102E400026D8D5F890008007F6D50CE0FFF7F2F809
:102E5000074604E0FFF7EEF8C11B414518D8D5F846
:102E600090008007F6D41EB1A86D20F08050A865B0
:102E70002078800629D5A0690028D5F8980013D0BD
:102E800040F00100C5F89800FFF7D4F8064606E0C8
:102E900077E000BFFFF7CEF8801B022877D8D5F87F
:102EA00098008007F6D510E020F00100C5F89800E2
:102EB000FFF7C0F8064604E0FFF7BCF8801B0228C5
:102EC00065D8D5F898008007F6D4E069F0B3A96812
:102ED000C1F38101032961D00228286820F08070A5
:102EE00028600BD0E86820F00300E860E8684749F4
:102EF0000840E860FFF79EF804464BE0FFF79AF8B9
:102F0000064604E0FFF796F8801B02283FD82868A1
:102F10008001F7D4F4E908016FF00F0202EB011110
:102F20000843218A5204490802EB4151A26841EA50
:102F300002210843217D4FF07E42490802EB4161A6
:102F40000843217B40EAC160E96800E062E0304A62
:102F500011400843E860286840F080702860E86805
:102F600040F08070E860FFF765F8044605E000BFB8
:102F7000FFF760F8001B022809D828688001F7D500
:102F800048E004E0FFF756F8001B022802D90320AE
:102F9000BDE8F88328688001F4D43BE00128F7D02D
:102FA000E868226A00F00301914226D1616A00F0CC
:102FB000F0020901103991421FD1A26A00F4FE41CA
:102FC000B1EB022F19D194F82C2000F07841B1EB2D
:102FD000C26F12D1218E00F4C00249084905A1F543
:102FE0000011914209D194F8341000F0C0604908F2
:102FF0004906A1F1007181420CD00120C8E7000010
:10300000001002401C00002000700040FFFFEEFE98
:103010000C809F010020BBE710B5401EB0F1807FFF
:1030200001D3012010BD4FF0E02460610F21601733
:1030300003F0BAFB0020A06107202061002010BD32
:10304000704770477047704770477047F0B590F809
:103050003C20012A43D0012580F83C50022280F810
:103060003D2003685A689C681E4E1F4FDFF87CC0E5
:10307000B34203D0BB4201D0634504D122F4700EA9
:103080004A6842EA0E02DFF868E002EA0E02D1F86E
:1030900000E04EEA020EC3F804E00268B24212D029
:1030A000B2F1804F0FD0134B9A420CD0124B9A4280
:1030B00009D0124B9A4206D0BA4204D0104B9A4221
:1030C00001D0624504D1896824F0800319439160DE
:1030D00080F83D50002180F83C100846F0BD0220E9
:1030E000F0BD0000002C01400034014000500140C0
:1030F0008FFFFFFD0004004000080040000C00406E
:1031000000400140704710B5040003D094F83D0022
:1031100010B107E0012010BD002084F83C002046DB
:1031200000F022F8022084F83D00211D206802F002
:10313000E9F9012084F8480084F83E0084F83F0053
:1031400084F8400084F8410084F8420084F8430089
:1031500084F8440084F8450084F8460084F8470069
:1031600084F83D00002010BD38B5054600682349AD
:10317000B0F1804F0BD0224A90421AD1886D40F0B6
:1031800002008865886D00F00200009038BD886DEF
:1031900040F001008865886D002200F00100009079
:1031A00011461C20FFF7D2F9BDE838401C20FFF77C
:1031B000BFB9144A9042E9D1886D40F00400886597
:1031C000886D124C00F0040000900F4820604420ED
:1031D00060601020A06000208021C4E90301490044
:1031E00061618900C4E9061020622046FEF746FDB1
:1031F00008B1FDF7C8FEAC62A56238BD0010024000
:103200000004004000080040080002405402002072
:1032100090F83D10012901D001207047022180F86B
:103220003D100168CA6842F00102CA600068134993
:10323000884214D0B0F1804F11D0114988420ED08D
:10324000104988420BD01049884208D00F49884263
:1032500005D00F49884202D00E49884207D18168C3
:103260000D4A1140062906D0B1F5803F03D0016810
:1032700041F001010160002070470000002C014076
:103280000004004000080040000C004000340140F1
:1032900000400140005001400700010070B50446A5
:1032A00090F83C00002501281CD0012684F83C60E1
:1032B000022084F83D0022689068334B184020F4C7
:1032C0007F4090600868B0F5005F2ED016DC402883
:1032D00049D009DCD0B1102818D0202816D03028C9
:1032E00049D113E0022070BD50282AD0602830D088
:1032F00070280FD0B0F5805F3DD13DE010F00F0F8A
:1033000039D10111A1F58031072934D8226801464D
:10331000104625E0CB68D1E90121206802F0DEF9F2
:103320002068816841F0770109E0CB68D1E901218B
:10333000206802F0D3F92068816841F480418160FF
:103340001AE0CA684968206802F09CFB5021206896
:1033500006E0CA684968206802F0A5FB6021206881
:1033600002F0C6F908E0CA684968206802F08AFBE2
:1033700040212068F4E7012584F83D60002084F8AE
:103380003C00284670BD000088FFCEFF70477047A4
:1033900070B50446006801694FF00005C94389070C
:1033A00015D4C168C943890711D4E91E0161012000
:1033B0002077206880698007204602D0FFF7E7FF6A
:1033C00004E000F01FF9204600F0E1F925772068BD
:1033D0000169C943490717D4C168C943490713D4D0
:1033E0006FF004010161022020772068806910F4E9
:1033F000407F204602D0FFF7CAFF04E000F002F948
:10340000204600F0C4F9257720680169C9430907FF
:1034100016D4C168C943090712D46FF008010161CD
:10342000042020772068C0698007204602D0FFF77B
:10343000AEFF04E000F0E6F8204600F0A8F925779A
:1034400020680169C943C90617D4C168C943C906C0
:1034500013D46FF010010161082020772068C06943
:1034600010F4407F204602D0FFF791FF04E000F007
:10347000C9F8204600F08BF9257720680169C94317
:10348000C90708D1C168C943C90704D1891E0161B0
:10349000204600F013FB20680169C943090609D4DE
:1034A000C168C943090605D46FF080010161204657
:1034B000FFF7C7FD20680169C943C90509D4C16880
:1034C000C943090605D46FF4807101612046FFF7F6
:1034D000B7FD20680169C943490609D4C168C943D9
:1034E000490605D46FF040010161204600F06CFBF5
:1034F00020680169C943890609D4C168C94389069E
:1035000005D46FF0200101612046FFF79BFD206884
:103510000169C943C90209D4C168C943C90205D4B4
:103520006FF4801101612046FFF78EFD206801696C
:10353000C943890209D4C168C943890205D46FF41B
:10354000001101612046FFF77EFD20680169C94333
:10355000490209D4C168C943490205D46FF4800106
:1035600001612046FFF771FD20680169C943090226
:103570000BD4C168C943090207D46FF4000101618B
:103580002046BDE87040FFF7BDBD70BD30B587B0C7
:10359000044614216846FCF773FE2468164D002388
:1035A000164902224FF09040AC420ED1CC6C44F050
:1035B0000104CC64C96C01F00101059140218DE842
:1035C0000E00CDE90332694611E00D4DAC4210D139
:1035D000CC6C44F00104CC64C96C01F0010105918C
:1035E000A9148DE80E000A21CDE903316946FEF7E2
:1035F000EBFB07B030BD00000004004000100240AB
:1036000000080040704770B5044690F83C00002662
:103610000D4601280BD0012084F83C000C2A4AD02A
:1036200007DC82B1042A20D0082A06D131E002202A
:1036300070BD102A53D0142A63D00126002084F8CC
:103640003C00304670BD206802F05CF8206881695B
:1036500041F0080181612068816921F004018161E4
:10366000206881692A69114311E0206802F0A0F8FE
:103670002068816941F4006181612068816921F4D9
:1036800080618161206881692A6941EA0221816142
:10369000D4E7206802F0DCF82068C16941F0080135
:1036A000C1612068C16921F00401C1612068C1695C
:1036B0002A69114311E0206802F01AF92068C169F3
:1036C00041F40061C1612068C16921F48061C16178
:1036D0002068C1692A6941EA0221C161AEE7206818
:1036E00002F056F92068016D41F00801016520687B
:1036F000016D21F0040101652068016D2A69114303
:1037000011E0206802F080F92068016D41F4006149
:1037100001652068016D21F4806101652068016DFB
:103720002A6941EA0221016588E710B5040003D047
:1037300094F83D0010B107E0012010BD002084F88E
:103740003C00204600F022F8022084F83D00211DB4
:10375000206801F0D7FE012084F8480084F83E007C
:1037600084F83F0084F8400084F8410084F8420067
:1037700084F8430084F8440084F8450084F8460047
:1037800084F8470084F83D00002010BD7047704762
:103790007047000070B50446022269B1042912D0B6
:1037A000082917D00C291CD0102921D094F84300E7
:1037B000012824D0012070BD94F83E000128F9D1E1
:1037C00084F83E201DE094F83F000128F2D184F8EF
:1037D0003F2016E094F840000128EBD184F8402007
:1037E0000FE094F841000128E4D184F8412008E07A
:1037F00094F842000128DDD184F8422001E084F8E9
:1038000043200122206801F0E7FE1D4920681D4A7F
:103810001D4B1E4D88420BD0904209D0984207D0D4
:103820001B4EB04204D01B4EB04201D0A84203D17F
:10383000466C46F4004646642068884211D0B0F1D8
:10384000804F0ED0144988420BD01449884208D0CA
:103850001349884205D0904203D0984201D0A84233
:1038600007D181680F4A1140062906D0B1F5803F83
:1038700003D0016841F001010160002070BD00002B
:10388000002C014000340140004001400050014044
:10389000004401400048014000040040000800408E
:1038A000000C0040070001002DE9F04117460D0013
:1038B00004464FF0000610D0042D15D0082D1AD064
:1038C0000C2D1FD0102D24D094F84300022827D0AF
:1038D00094F84300012826D07CE094F83E000228AA
:1038E0001ED094F83E00F5E794F83F00022817D068
:1038F00094F83F00EEE794F84000022810D094F8C6
:103900004000E7E794F84100022809D094F841000C
:10391000E0E794F84200022802D094F84200D9E788
:103920000220BDE8F08107B993BB5749574ADFF839
:1039300060C1022055B1042D19D0082D29D00C2DBD
:1039400038D0102D48D084F8430047E084F83E007A
:10395000606AC162606A39460263606AC0F834C056
:103960002268606A3432FEF7E9F988B938E084F8F1
:103970003F00A06AC162A06A39460263A06AC0F82B
:1039800034C02268A06A3832FEF7D8F900B92CE0BA
:1039900020E084F84000E06AC162E06A39460263D0
:1039A000E06AC0F834C02268E06A3C32FEF7C6F92B
:1039B00080B91FE084F84100206BC162206B39465A
:1039C0000263206BC0F834C02268206B4032FEF7DF
:1039D000B5F9A0B10120A4E784F84200012650E027
:1039E0002068C16841F400710DE02068C16841F4AD
:1039F000806108E02068C16841F4006103E020684C
:103A0000C16841F48051C16001222946206801F05B
:103A1000E3FD20492068204A204B214D88420BD0ED
:103A2000904209D0984207D01E4FB84204D01E4F92
:103A3000B84201D0A84203D1476C47F4004747641D
:103A40002068884211D0B0F1804F0ED017498842CB
:103A50000BD01749884208D01649884205D09042B9
:103A600003D0984201D0A84207D18168124A114080
:103A7000062906D0B1F5803F03D0016841F001016D
:103A8000016030464DE70000F3550008515600082C
:103A900089560008002C01400034014000400140DC
:103AA0000050014000440140004801400004004033
:103AB00000080040000C004007000100F0B53E493E
:103AC00000680968884276D13C4801224FF4966428
:103AD00001783B4801294AD141694FF4FA73491CE6
:103AE000B1FBF3F503FB1515416136490B78002155
:103AF0001DB9012B01D1C271416145694FF448766E
:103B0000B5FBF6F706FB17551DB9022B01D1027262
:103B100041614569B5FBF4F604FB16551DB9032B4D
:103B200001D14272416145694FF4E166B5FBF6F798
:103B300006FB17551DB9042B01D1827241614569FD
:103B400040F6FC06B5FBF6F706FB17551DB9052B2D
:103B500001D1C272416145694FF42F66B5FBF6F79A
:103B600006FB17551DB9062B01D10273416101698E
:103B700040F2DC53491CB1FBF3F503FB1513016163
:103B800013B90270C2708271B1FBF4F304FB13131A
:103B900003B902711E23B1FBF3F403FB141303B941
:103BA000427140F2EE23B1FBF3F403FB1411002940
:103BB00001D142708270F0BD700100203B000020F6
:103BC000040000203C000020704790F8801001297C
:103BD00018D0012180F880102421C0F8841050F8FA
:103BE000641B0A680B6823F001030B6022F000518C
:103BF0000022026050F8643C1960202101620277C3
:103C000010467047022070477047704770B50446F1
:103C100090F8800001281DD0012084F88000242025
:103C2000C4F8840020680568026822F0010202607E
:103C30002068826822F060620A438260204601F0B8
:103C400045FF206805602020C4F88400002084F827
:103C5000800070BD022070BD70B5044690F88000F1
:103C600001281DD0012084F880002420C4F884009D
:103C700020680568026822F00102026020688268FC
:103C800022F060420A438260204601F01FFF206854
:103C900005602020C4F88400002084F8800070BDF6
:103CA000022070BD7047704770B50446D0F884009C
:103CB000D4F88860216889684FF01005090618D586
:103CC000212816D12068083050E8001F21F080011B
:103CD00040E80012002AF5D1A06F38B1FDF7FEFED2
:103CE00020B1A06FFDF76BFF202821D0204602F005
:103CF0004FF820688068400618D5222E16D120681B
:103D0000083050E8001F21F0400140E80012002A6E
:103D1000F5D1E06F38B1FDF7E1FE20B1E06FFDF7BE
:103D20004EFF202804D0204602F008F8002070BD85
:103D3000C4F88C50032070BD704700002DE9F0419D
:103D400003680446D86919689A6840F60F05284246
:103D50004FF0000509D186067ED501F0200602F05D
:103D600080573E4378D0216F27E1A94EA94F1640D6
:103D70000F40374370D0C70709D0CF0507D50127BB
:103D80001F62D4F88C3043F00103C4F88C308307F1
:103D90000AD5D30708D0276802233B62D4F88C30B9
:103DA00043F00403C4F88C3043070AD5D30708D086
:103DB000276804233B62D4F88C3043F00203C4F834
:103DC0008C3003070CD501F02003334308D026685C
:103DD00008233362D4F88C3043F00803C4F88C30E5
:103DE00003050BD54B0109D526684FF400633362F8
:103DF000D4F88C3043F02003C4F88C30D4F88C30E5
:103E0000002B3AD0800609D501F0200002F0805145
:103E1000084303D0216F09B120468847D4F88C00AD
:103E200021688968490602D410F0280F27D020465F
:103E300001F084FF2068806840061BD520680830A8
:103E400050E8001F21F0400140E80012002AF5D19F
:103E5000E06F78B1704900E017E08163E06FFDF733
:103E600072FE002809D0E06F816B00E02046BDE8BB
:103E7000F04108472046FFF75FFFBDE8F08120468C
:103E8000FFF75AFFC4F88C50F7E7E76E2026012FA2
:103E90007ED1C7067CD5CF067AD51020186220685F
:103EA0008068400642D5E16F086840680004000C55
:103EB000E3D0B4F85C208242DFD9A4F85E00086841
:103EC000006880062BD4206850E8001F21F4807120
:103ED00040E80012002AF6D12068083050E8001FA0
:103EE00021F0010140E80012002AF5D120680830D5
:103EF00050E8001F21F0400140E80012002AF5D1EF
:103F0000C4F88860E566216851E8000F20F01000D1
:103F100041E80002002AF6D1E06FFDF7DFFDB4F8BA
:103F20005C00B4F85E10401A81B22CE0B4F85C007A
:103F3000B4F85E10401A81B2B4F85E0000289CD03C
:103F400000299AD0226852E8000F20F4907042E8CD
:103F50000003002BF6D12E4BDB432068083050E8DD
:103F6000002F1A4040E80027002FF6D1C4F88860DF
:103F7000E5662567226852E8000F20F0100042E84D
:103F80000003002BF6D12046FFF73EFE75E7FFE762
:103F9000C70209D5570207D54FF480101862204692
:103FA000BDE8F041FFF77FBE03060AD501F08003AC
:103FB00002F40002134304D0616F00297FF456AF6E
:103FC0005BE7420611D54A060FD52046016851E845
:103FD000002F22F0400241E80023002BF6D1C0F868
:103FE0008460456700F075FA47E7020206D54A008B
:103FF00004D52046BDE8F041FFF754BEC001C5D549
:104000000029C3DA2046BDE8F041FFF7FEBD0000FD
:104010000100001020010004395C000810B5040004
:1040200003D0D4F8840010B107E0012010BD0020B7
:1040300084F88000204600F027F82420C4F884008B
:104040002068016821F001010160204602F0CEF8ED
:104050000128EBD0A06A10B1204601F059FD20687C
:10406000416821F4904141602068816821F02A0173
:1040700081602068016841F0010101602046BDE8CF
:10408000104001F0A9BD00002DE9F0439BB00646A9
:10409000142115A8FCF7F4F854216846FCF7F0F851
:1040A00060493068604C072500274FF001094FF048
:1040B0000208884229D1CDE900974E466846FEF7AE
:1040C000DDFA08B1FCF75FFF206E40F48040206607
:1040D000206E00F480401A90E06C40F00400E06430
:1040E000E06C179600F004001A903020CDE9150816
:1040F000CDE9187515A94D48FDF766FE002203218C
:104100002520FEF723FA25202CE0494988422ED1AC
:104110006846CDF800800297FEF7B0FA08B1FCF7C8
:1041200032FFA06D40F40030A065A06D00F40030B7
:104130001A90E06C40F00100E064E06CCDE9168775
:1041400000F001001A900C20CDE91875159015A902
:104150004FF09040FDF738FE002205212620FEF7A3
:10416000F5F92620FEF7E4F91BB0BDE8F0833149EC
:104170008842F9D10420009003976846FEF77EFA42
:1041800008B1FCF700FFA06D40F48020A065A06D91
:1041900000F480201A90E06C40F00200E064E06CD3
:1041A00015A900F002001A904FF4406081E8010365
:1041B000CDE918753C462048FDF706FE204D1F4806
:1041C000802728601C20C5E90104C5E903476C610C
:1041D000AC61EC6128462C62FDF750FD08B1FCF79C
:1041E000D2FEF567AE62164D144860351430286073
:1041F0001D20686005F10801102081E891006C61C4
:10420000AC61EC6128462C62FDF738FD08B1FCF783
:10421000BAFEB567002204212720AE62FEF796F9A8
:1042200027209FE7003801400010024000080048A6
:10423000004400400048004000040048580002408C
:104240006404002030B4D0F88830202B20D1E1B1B4
:10425000DAB190F88030012B1AD0012380F8803039
:104260000023C3660B4C0368A3420BD05B681B02A0
:1042700008D5046854E8003F43F0806344E8003503
:10428000002DF6D130BC02F0FDB8012030BC7047E3
:104290000220FBE70080004030B4D0F88830202BAB
:1042A00020D1E1B1DAB190F88030012B1AD001238E
:1042B00080F880300023C3660B4C0368A3420BD008
:1042C0005B681B0208D5046854E8003F43F0806334
:1042D00044E80035002DF6D130BC02F025B90120AC
:1042E00030BC70470220FBE7008000402DE9F05F02
:1042F000006842494FF0000A884266D1404A0121D5
:10430000042592F800C03F4F02263F4B3F4CACF1D2
:10431000110C4FF090404FF4807B4FF4007E4FF033
:104320000309BCF1220F50D2DFE80CF0161820224E
:1043300011131B1D254F4F4F4F4F4F272A2C2E3146
:1043400033353C3F424F4F4F4F4F4F46494C012270
:1043500000E00022202122E0012200E00022594654
:104360001DE0012200E00022714618E0012200E079
:104370000022042112E0517027E082F801A024E01D
:10438000917022E0967020E082F802901DE0957016
:104390001BE0012200E000224FF400413846FDF707
:1043A00044FE12E0197021700FE0197026700CE0C5
:1043B000197084F8009008E01970257005E01970F4
:1043C000052001E019700620207001220C491048D8
:1043D000FFF762FF02280ED10D4808210268116222
:1043E0002021C0F8881080F880A0BDE8F05F01228D
:1043F0000349FFF751BFBDE8F09F000000380140BE
:104400003D000020000400483B0000203C0000204C
:10441000B402002070472DE9F8430446D0F8840028
:104420001F4616460D46202851D1DDB1D6B194F86D
:10443000800001284BD0012084F880004FF0000854
:10444000C4F88C802120C4F884001834FDF7F2FDF4
:10445000A6878146E68754F8100C183CB0F5805FBB
:1044600003D004E00120BDE8F883206920B12E4686
:10447000002584F8808010E00026FAE7802120469D
:1044800002F0DEF8B8B9C6B116F8010B21688862EF
:10449000B4F85600401EA4F85600B4F856004B4637
:1044A0004FF0000200970028E8D14FF0400120466D
:1044B00002F0C6F830B10320D5E735F8020BC0F39F
:1044C0000800E3E72020C4F884000020CBE70220A6
:1044D000C9E7704710B50C46014607A002F042F943
:1044E00009A002F03FF9214608A002F03BF9BDE81F
:1044F000104005A002F036B96D61696E2E78322E3B
:1045000076616C3D25640000FFFFFF006D61696E00
:104510002E78322E767673313D25640010B50C4628
:10452000014607A002F01EF909A002F01BF921467E
:1045300008A002F017F9BDE8104005A002F012B97A
:104540006D61696E2E78312E76616C3D25640000B8
:10455000FFFFFF006D61696E2E78312E7676733124
:104560003D25640010B50C46014607A002F0FAF89C
:1045700009A002F0F7F8214608A002F0F3F8BDE820
:10458000104005A002F0EEB86D61696E2E78332EF2
:1045900076616C3D25640000FFFFFF006D61696E70
:1045A0002E78332E767673313D25640010B50C4697
:1045B000014607A002F0D6F809A002F0D3F8214680
:1045C00008A002F0CFF8BDE8104005A002F0CAB87C
:1045D0006D61696E2E78302E76616C3D2564000029
:1045E000FFFFFF006D61696E2E78302E7676733195
:1045F0003D256400FEE7000010B531482DED028B2B
:10460000FDF7D0F932212E48FDF72CF92C48FCF7A4
:1046100099FF00EE100ADFED2B0AB8EE400A20EEFB
:10462000200A10EE100AFCF714F89FED278B53ECCC
:10463000182BFBF7D7FEFCF71FF800EE100ADFED92
:10464000240A20EE200A10EE100AFCF702F853ECC0
:10465000182BFBF739FFFCF70FF808EE100A1D497D
:1046600018EE100A884201DD9FED1B8AB0EE480A61
:10467000FCF790FB42F60411081A42F210718842CE
:1046800000D90846BCEEC80A10EE101AC9B2C1F132
:1046900064020A2192FBF1F292FBF1F301FB132277
:1046A0000E4B9A7010EE102AD2B2C2F1640292FB45
:1046B000F1F401FB1421D970BDEC028B10BD000098
:1046C0004C000020000080396666666666660A4017
:1046D0000000C8420000C8420000BE424000002066
:1046E00001688A69D243920701D400228A62006875
:1046F0008169C943C90703D0816941F00101816122
:10470000704700002DE9F0470446006888461746C8
:10471000816900252E46C906A9464FF0200A47D5D3
:104720001021C16137E000BFB8F1FF3F33D0FDF782
:1047300081FCC11B414502D8B8F1000F2BD1206884
:10474000416894F8422001F480418369DB431B04F3
:104750001CD4B1F5804F19D0202A17D0416841F4FC
:1047600080414160FDF766FC07460FE0FDF762FC03
:10477000C01B19280AD9606C40F02000606484F8DE
:1047800041A084F8429084F8409001252068806917
:10479000C0438006EAD420688069C0F340102843F3
:1047A000C2D015B92168C1F81CA046F00406012545
:1047B00021688869C20505D54FF4807246F001066C
:1047C000CA610125410509D522684FF4806146F090
:1047D0000806D1610125800502D40AE0800507D5CD
:1047E00021684FF4007046F00206C861012500E020
:1047F0008DB12046FFF774FF54F8240B4168074A37
:1048000011404160206A3043206284F81DA084F882
:104810001E9084F81C902846BDE8F08700E800FE52
:1048200010B5C1F3090141EA02410268029C194333
:104830002143506821F000414FF4806303EA545350
:10484000024C234398430843506010BDFF63FF03AD
:104850002DE9F0411D4617460E460446DDF8188046
:1048600008E0681C06D0FDF7E5FBA0EB0800A842B5
:104870000BD855B12068806936EA000012D00020BC
:10488000B842EED00020BDE8F08154F8440F40F06B
:10489000200044F80409202060700020A0702070DF
:1048A0000120F0E70120EBE72DE9F04120269046BA
:1048B0000F460446002530E0424639462046FFF7C1
:1048C00021FF10BB20688069C04380061ED4206889
:1048D0008169C943490701D4218D19BB8169C94345
:1048E000C90604D41021C1610420606400E065643D
:1048F0002068C66120684168114A1140416084F80F
:10490000416084F8425084F8405016E0FDF792FB75
:10491000A0EB0800B84208D83FB120688069C043C6
:104920004007C9D40020BDE8F08154F8440F40F09E
:10493000200044F80409667025700120F3E70000A8
:1049400000E800FE70B516460D4604460DE03246FE
:1049500029462046FFF7D6FE08B1012070BDFDF7BD
:1049600069FB801BA84207D835B120688069C04325
:104970008006ECD4002070BD54F8440F40F02000B5
:1049800044F80409202060700020A0702070E4E743
:1049900070B516460D4604460FE0324629462046BD
:1049A000FFF7B0FE08B1012070BD681C05D0FDF70F
:1049B00041FB801BA84207D835B120688069C043FD
:1049C0008007EAD4002070BD54F8440F40F0200066
:1049D00044F80409202060700020A0702070E2E7F5
:1049E00000EB8100006E00F0F84070478068C0F373
:1049F000C00070478068C0F3800070478068C0F3D3
:104A000080007047C06810F4406F01D000207047EC
:104A100001207047042303EAD15310B518444369B9
:104A2000C1F3045107248C40A3438A4013434361DC
:104A300010BD00EB8100016E21F0004111430166C1
:104A40007047000030B58BB00024089409942021F1
:104A500068460A94FBF714FC1C484FF0A04104255B
:104A600001604FF44031C0E90114C4600461C0E941
:104A70000545047744770121016280F82440C4622F
:104A8000046380F83840C46380F84040FCF75EFD62
:104A900008B1FCF778FA08A90C480894FCF776FAF4
:104AA00008B1FCF770FA0A4800900620CDE901042D
:104AB0007F200594CDE9030569460448FCF714FB03
:104AC000002801D0FCF75FFA0BB030BD4C0000208D
:104AD0002000F01430B589B020216846FBF7D0FBE8
:104AE00019481849002401604FF44031C0E901140D
:104AF000C46004250461C0E90545047744770121B9
:104B0000016280F82440C462046380F83840C463C2
:104B100080F84040FCF71AFD08B1FCF734FA0B4866
:104B200000900620CDE901047F200594CDE903051E
:104B300069460548FCF7D8FA002801D0FCF723FAAB
:104B400009B030BD00010050B80000200200300460
:104B5000154808B5816C41F004018164816C01F055
:104B600004010091816C41F001018164806C00229C
:104B700000F00100009011460B20FDF7E7FC0B2030
:104B8000FDF7D6FC002211460F20FDF7DFFC0F20B9
:104B9000FDF7CEFC002211461020FDF7D7FCBDE842
:104BA00008401020FDF7C4BC001002402DE9F04180
:104BB00086B014216846FBF763FB2448C16C41F0C2
:104BC0002001C164C16C01F020010591C16C41F06C
:104BD0000101C164C16C01F001010591C16C41F09A
:104BE0000401C164C16C01F004010591C16C41F084
:104BF0000201C164C06C4FF44C7400F002004FF02D
:104C000090470590002221463846FDF70EFADFF85E
:104C1000408048F20406002231464046FDF705FA7E
:104C20000125CDE9004500240294694638460394E5
:104C3000FDF7CAF80096CDE9015469464046039451
:104C4000FDF7C2F806B0BDE8F08100000010024098
:104C500000040048134810B5114901601249416031
:104C600000210122C0E90212016141618161C1613B
:104C70000162FDF739FA08B1FCF785F9002109480E
:104C8000FDF7DEF908B1FCF77EF900210548FDF7D4
:104C900002FA002803D0BDE81040FCF774B910BD3B
:104CA0000054004024010020FFEDC02010B588B062
:104CB00000241748009401940294039404940594EA
:104CC0004FF08041069401609521C0E9011440F243
:104CD000E731C0E903148461FEF715FA08B1FCF767
:104CE00052F94FF48050009069460948FEF7D6FA11
:104CF00008B1FCF748F9049404A905480694FEF7A6
:104D0000A5F9002801D0FCF73EF908B010BD00005D
:104D10007001002010B58EB0002407940894099407
:104D20000A940B940C941C2168460D94FBF7A8FA86
:104D30001E481D49016040F2DB51C0E9011440F2F8
:104D4000CF71C0E903148461FEF7DDF908B1FCF707
:104D50001AF94FF48050079007A91448FEF79EFAFD
:104D600008B1FCF710F91148FEF7DFFC08B1FCF7B9
:104D70000AF90B940BA90D480D94FEF767F908B1D9
:104D8000FCF701F96020CDE9000402940022694695
:104D900006480494FEF737FC08B1FCF7F4F8034822
:104DA000FEF7F4FB0EB010BD00040040BC01002073
:104DB00010B58EB000240794089409940A940B94BB
:104DC0000C941C2168460D94FBF75AFA1D481C49A7
:104DD000C0E90014BD21C0E9024104618461FEF70D
:104DE00092F908B1FCF7CFF84FF48050079007A96B
:104DF0001448FEF753FA08B1FCF7C5F81148FEF75E
:104E000094FC08B1FCF7BFF80B940BA90D480D9466
:104E1000FEF71CF908B1FCF7B6F86020CDE90004F4
:104E200002940422694607480494FEF7ECFB08B19B
:104E3000FCF7A9F80348FEF7A9FB0EB010BD00006F
:104E40000008004008020020184810B5164901600B
:104E50004FF4E1314160002181600C22C160C0E962
:104E600004128161C161016241628162FFF7D6F87B
:104E700008B1FCF788F800210C48FEF7EDFE08B1F8
:104E8000FCF781F800210948FEF7C0FE08B1FCF7E5
:104E90007AF80648FEF799FE002803D0BDE81040D6
:104EA000FCF771B810BD000000380140B4020020CA
:104EB000184810B5164901604FF4E13141600021F6
:104EC00081600C22C160C0E904128161C16101628C
:104ED00041628162FFF7A2F808B1FCF754F80021A3
:104EE0000C48FEF7B9FE08B1FCF74DF8002109485F
:104EF000FEF78CFE08B1FCF746F80648FEF765FEA3
:104F0000002803D0BDE81040FCF73DB810BD0000FC
:104F1000004400404403002010B51C4C1A480C21EA
:104F200020604FF4165060600020A060E060C4E98B
:104F30000401A061E06120626062A0622046FFF788
:104F40006DF808B1FCF71FF800211048FEF784FE49
:104F500008B1FCF718F800210C48FEF757FE08B11D
:104F6000FCF711F80948FEF730FE08B1FCF70BF822
:104F70002068016841F010010160BDE81040142272
:104F800003490248FFF75EB900480040D4030020FF
:104F900024050020FEE700002DE9F0472348002407
:104FA000C178052902D2491CC17000E0C470204EAE
:104FB0003178012928D1C17805290DD2DFE801F027
:104FC0000307262B300004704470FF2103E00470B7
:104FD00066214170CC21817090F8029090F8018098
:104FE000077800252B464A464146384602F0E6F847
:104FF0006D1CEDB21E2DF5D34FF448730D4A0421FC
:105000000D48FEF751FC3470BDE8F0870470442170
:105010004170AA21DFE7047038214170B421DAE73A
:1050200004702F214170C821D5E700002E00002018
:105030000800002038050020080200202DE9F04774
:1050400024480025C179052902D2491CC17100E01C
:10505000C571214E3178012929D1C2791E21052A35
:105060000DD2DFE802F00307262C31003621017152
:10507000BD2227E00171B32141712B21817190F88C
:10508000069090F805800779002423464A46414659
:10509000384602F093F8641CE4B21E2CF5D34FF4AA
:1050A00048730E4A04210E48FEF7FEFB3570BDE83A
:1050B000F0872E210171DB2141713C21DEE71421B3
:1050C0000171AA224271D9E70171DC2141712821C5
:1050D000D4E700002E000020080000203805002042
:1050E000080200202DE9F04725480025C17A05294E
:1050F00002D2491CC17200E0C572224E31780129EA
:105100002CD1C37AF022C821052B0FD2DFE803F09F
:105110000308282D33000272E6214172302104E099
:10512000DA210172A52141722021817290F80A9042
:1051300090F80980077A002423464A4641463846BB
:1051400002F03CF8641CE4B21E2CF5D34FF4487313
:105150000D4A04210D48FEF7A7FB3570BDE8F08726
:105160000172B72141723221DFE7CD210172852121
:1051700041722821D9E7027241721E21D5E7000051
:105180002E00002008000020380500200802002022
:1051900070B5284D287801284BD1274C0026237B59
:1051A0001E2B30D20720B3FBF0F100FB1130072893
:1051B0000ED2DFE800F00407171A1D202400642235
:1051C000114601E0642223215FF0000001F0F6FFA8
:1051D000207B401CC0B2207300EB4000502101EB4B
:1051E000C0031EE064220021EEE76422002104E0F7
:1051F0000022322101E0002264216420E6E700223F
:1052000064210F20E2E73C2B11D200221E3B9BB20F
:105210001146104601F0D2FF207B4FF44873401C2A
:105220002073064A04210648FEF73EFB00E0267381
:105230002E7070BD090000202E00002038050020CF
:1052400008020020FEE7000010B5002400222346DB
:105250001146104601F0B2FF641CE4B21E2CF5D3D7
:10526000BDE810404FF44873024A04210248FEF79B
:105270001BBB00003805002008020020704700001A
:10528000154910B50B78154A012B01D113685863E5
:105290004B780020072B1BD2DFE803F01A040D1215
:1052A000141618000E4B07E0487018701268962309
:1052B0005363087010BD0B4B1C78012CF4D010BD4B
:1052C000094BF9E7094BF7E7094BF5E7094BF3E71A
:1052D00011689620486310BD3B000020BC010020EF
:1052E0000B0000200C0000200D0000200E0000200C
:1052F0000F00002010000020014909684863704732
:10530000BC0100207047FDF7C1B800B593B038214B
:105310006846FAF7B5FF14210EA8FAF7B1FF4FF46B
:105320000070FDF745F90220C1010391402104916D
:105330000421CDE9080100904B21CDE90A10079026
:105340000C900D906846FDF761FC08B172B6FEE75F
:105350000F200E9003200F900020109011901290BB
:1053600004210EA8FDF70AFB002801D072B6FEE763
:1053700013B000BD0248016841F47001016070473C
:1053800088ED00E010B52DED108B9FED4AFA4A48EC
:10539000FCF708FB32214848FCF764FA4648FCF762
:1053A000D1F800EE100AB8EE400ADFED440A20EE14
:1053B000200A10EE100AFBF74CF99FED411B53EC4D
:1053C000112BFBF70FF8FBF757F900EE100AF6EE7A
:1053D000000A9FED3DEBC0EE208A9FED3DDB18EE0D
:1053E000900AFBF736F99FED3C1B53EC112BFAF7B3
:1053F000F9FF41EC1C0B18EE900AFBF72AF941EC7F
:10540000190B18EE900AFBF724F99FED351B53ECAE
:10541000112BFAF7E7FF53EC192BFAF7E3FF41ECF6
:105420001B0B18EE900AFBF714F941EC1A0B18EE5F
:10543000900AFBF70EF941EC190B18EE900AFBF7F6
:1054400008F99FED291B53EC112BFAF7CBFF53EC16
:10545000192BFAF7C7FF53EC1A2BFAF7C3FF53ECDB
:105460001B2BFAF7B9FF53EC1C2BFAF714FF53EC84
:105470001E2BFAF7B7FF53EC1D2BFAF7B3FFFBF720
:10548000FBF808EE100A1A49B5EEC08AF1EE10FAE0
:1054900002D8B0EE4F8A05E018EE100A884201DD0E
:1054A0009FED148ABCEEC80ABDEC108B10EE100AFA
:1054B00010BD000000000000B8000020000080398E
:1054C0006666666666660A40000000000000E03F0F
:1054D000000000000000F83F85EB51B81ECB8A4069
:1054E000EC51B81E85FB6F403D0AD7A370AD6040FC
:1054F0000000AF440000AF440148FDF749BF000081
:10550000700100202DE9F04F02682A4B2A4E2B4FE4
:10551000DFF8ACC02B4C2C4D4FF0804B98420BD099
:10552000584509D0B04207D0B84205D0604503D0F5
:10553000A04201D0A84204D122F070084A6842EA91
:105540000802DFF88880DFF88890DFF888A09842AA
:1055500011D058450FD0B0420DD0B8420BD06045A5
:1055600009D0A04207D0404505D0484503D050455A
:1055700001D0A84203D122F44076CA6832434E6972
:1055800022F08002324302608A68C2620A68826244
:10559000984209D0A04207D0404505D0484503D0E5
:1055A000504501D0A84201D109690163012141613F
:1055B000BDE8F08F002C01400004004000080040CE
:1055C000000C004000340140005001400040014008
:1055D000004401400048014010B501F01F030121C3
:1055E000046A99408C430462016A9A401143016243
:1055F00010BD10B5846A0121626A824205D121770B
:10560000C069F8B984F83E101CE0A26A824206D153
:1056100002222277C069A8B984F83F1012E0E26A3A
:10562000824206D104222277C06958B984F840101A
:1056300008E0226B824205D108222277C06908B9AE
:1056400084F841102046FEF7A2F80020207710BD14
:1056500010B5846A616A814201D101200DE0A16A1E
:10566000814201D1022008E0E16A814201D1042097
:1056700003E0216B814201D1082020772046FEF70C
:1056800087F80020207710BD10B5846A0121626A76
:10569000824203D1217784F83E1019E0A26A824247
:1056A00004D10220207784F83F1011E0E26A8242A0
:1056B00004D10420207784F8401009E0226B824254
:1056C00004D10820207784F8411001E084F83D10CF
:1056D0002046FDF75BFE0020207710BD10B58468E2
:1056E00042EA032224F47F440A432243826010BD2D
:1056F0008268034B1A400A4342F0070181607047F9
:105700008FFFCFFF2DE9F047026A22F0010202620B
:10571000056A436882691F4C25F0020522400C6827
:1057200022F0030214438A681C4E2A431A4D1C4F70
:10573000DFF870C0DFF87090DFF870A0A84209D0E1
:10574000B04207D0B84205D0604503D0484501D0EB
:10575000504506D122F00808CA6842EA080222F041
:105760000402A84209D0B04207D0B84205D0604533
:1057700003D0484501D0504505D14D6923F440730D
:105780001D438B692B434360846149684163026216
:10579000BDE8F0878FFFFEFF002C01400034014080
:1057A00000400140004401400048014000500140D9
:1057B000F0B5026A22F010020262056A426883694B
:1057C0001C4C1E4E23400C6823F4407343EA04240F
:1057D00025F020038D681A4F43EA0513164DA842A1
:1057E00003D0B04201D0B84207D1D1F80CC023F0A9
:1057F000800343EA0C1323F04003A8420CD0B042CC
:105800000AD0104DA84207D00F4DA84204D00F4D2A
:10581000A84201D0B84207D14D6922F4406242EA61
:1058200085028D6942EA850242608461496881632C
:105830000362F0BDFF8FFFFE002C014000340140E9
:105840000050014000400140004401400048014038
:10585000F0B5026A22F480720262056A4268C36986
:105860001C4C1E4E23400C6823F003031C4325F4FC
:1058700000738D681A4F43EA0523174DA84203D0E1
:10588000B04201D0B84207D1D1F80CC023F4006374
:1058900043EA0C2323F48063A8420CD0B0420AD020
:1058A000104DA84207D0104DA84204D00F4DA84279
:1058B00001D0B84207D14D6922F4405242EA0512A4
:1058C0008D6942EA05124260C4614968C16303629E
:1058D000F0BD00008FFFFEFF002C014000340140AE
:1058E0000050014000400140004401400048014098
:1058F000F0B5026A22F480520262056A4268C36906
:105900001C4C1E4E23400C6823F4407343EA0424CD
:1059100025F400538D681A4F43EA0533164DA8420B
:1059200003D0B04201D0B84207D1D1F80CC023F463
:10593000004343EA0C3323F48043A8420CD0B04226
:105940000AD0104DA84207D00F4DA84204D00F4DE9
:10595000A84201D0B84207D14D6922F4404242EA40
:1059600085128D6942EA85124260C461496801640A
:105970000362F0BDFF8FFFFE002C014000340140A8
:1059800000500140004001400044014000480140F7
:1059900030B5026A22F480320262046A4268036D02
:1059A000124D2B400D681D4324F400330C8943EA4B
:1059B00004430F4CA0420ED00E4CA0420BD00E4C14
:1059C000A04208D00D4CA04205D00D4CA04202D000
:1059D0000C4CA04204D14C6922F4803242EA0422E9
:1059E0004260056549688164036230BD8FFFFEFF38
:1059F000002C0140003401400040014000440140BF
:105A0000004801400050014030B5026A22F4801283
:105A10000262046A4268036D134D24F400142B40A3
:105A20000D6843EA05230D8944EA05540F4DA84249
:105A30000ED00F4DA8420BD00E4DA84208D00E4DEF
:105A4000A84205D00D4DA84202D00D4DA84204D168
:105A50004D6922F4802242EA85224260036549684A
:105A6000C164046230BD0000FF8FFFFE002C0140C6
:105A70000034014000400140004401400048014022
:105A80000050014010B5036A046A24F00104046266
:105A9000846924F0F00444EA021423F00A020A4361
:105AA0008461026210BD10B5036A23F01003036223
:105AB0008369046A23F4704343EA023224F0A003AA
:105AC00043EA01118261016210BD000030B5416EF0
:105AD000B9B1026891689268C1F342610B4B520FF1
